:020000040800F2
:1000000000200020A11B0008DD1A0008E31A0008E8
:1000100000000000000000000000000000000000E0
:10002000000000000000000000000000E91A0008C5
:100030000000000000000000F31A0008FD1A00088C
:10004000F11B000800000000F11B0008F11B000874
:10005000F11B0008F11B0008F11B0008F11B000850
:1000600000000000111B0008F11B0008F11B000834
:10007000F11B0008F11B0008F11B00080000000044
:10008000F11B0008F11B000800000000F11B000834
:10009000F11B0008F11B0008F11B0008F11B000810
:1000A000F11B0008F11B0008F11B0008F11B000800
:1000B000F11B00080000000000000000000000002C
:1000C00010B5064C2378002B07D1054B002B02D02E
:1000D000044800E000BF0123237010BD7800002019
:1000E00000000000485B0008044B10B5002B03D053
:1000F0000349044800E000BF10BDC04600000000F6
:100100007C000020485B00080023C25C0133002A09
:10011000FBD1581E7047000003B4714649084000E7
:100120004900095E49008E4403BC70470022430821
:100130008B4274D303098B425FD3030A8B4244D3AF
:10014000030B8B4228D3030C8B420DD3FF220902F1
:1001500012BA030C8B4202D31212090265D0030BB0
:100160008B4219D300E0090AC30B8B4201D3CB03A6
:10017000C01A5241830B8B4201D38B03C01A5241E8
:10018000430B8B4201D34B03C01A5241030B8B42EA
:1001900001D30B03C01A5241C30A8B4201D3CB02D5
:1001A000C01A5241830A8B4201D38B02C01A5241BA
:1001B000430A8B4201D34B02C01A5241030A8B42BD
:1001C00001D30B02C01A5241CDD2C3098B4201D3D5
:1001D000CB01C01A524183098B4201D38B01C01A53
:1001E000524143098B4201D34B01C01A52410309CA
:1001F0008B4201D30B01C01A5241C3088B4201D379
:10020000CB00C01A524183088B4201D38B00C01A25
:10021000524143088B4201D34B00C01A5241411A4C
:1002200000D20146524110467047FFE701B5002059
:1002300000F006F802BDC0460029F7D076E7704707
:100240007047C04690B58BB000AF78600A00FB1CC9
:100250001A7027217B18FA1C12781A707B681B69A8
:10026000002B05D07B681B697C189847030023701E
:100270002723FB181B78002B00D191E07B681B78AB
:10028000072B00D980E09A008B4BD3181B689F4640
:100290007B6801221A707B6814333221180000F049
:1002A000BFFA00F0A5FA02007B685A6277E07B682B
:1002B0001433180000F0DEFA031E67D07B680222B8
:1002C0001A7063E07B6803221A707B681433FA2289
:1002D00092001100180000F0A3FA7B68DB68002B85
:1002E00056D02023FB1801221A707B68DB687A68DD
:1002F00010893A6A002198474AE07B681433180055
:1003000000F0B8FA031E45D07B6804221A707B689F
:10031000DB68002B3ED01C23FB1804221A707B687C
:10032000DB687A681089FA690021984732E07B68B7
:100330001433180000F09EFA031E2DD17B680122B1
:100340001A707B6814333221180000F069FA00F04B
:100350004FFA02007B685A621EE000F049FA020080
:100360007B685B6AD21A7B685A607B68DB68002B0B
:1003700014D07B685B68BB617B68DB687A68108936
:10038000BA690221984709E0C04691E0C0468FE073
:10039000C0468DE0C0468BE0C04689E0C04687E09D
:1003A0007B681B78033B042B00D978E09A00434B11
:1003B000D3181B689F467B6805221A707B6814332C
:1003C0003221180000F02CFA72E07B681433180018
:1003D00000F050FA031E66D07B6806221A707B6814
:1003E0005B780133DAB27B685A707B68DB68002B7C
:1003F0000AD01423FB1803221A707B68DB687A6822
:1004000010897A69002198477B68DB68002B4AD005
:100410007B685A781023FB181A707B68DB687A684F
:1004200010893A69012198473DE07B6809221A70DA
:100430007B681433180000F043FA7B6800225A707E
:100440007B68DB68002B30D00C23FB1805221A7068
:100450007B68DB687A681089FA680021984724E095
:100460007B6807221A707B681433FA22520011004D
:10047000180000F0D5F91BE07B681433180000F079
:10048000F9F9031E13D07B6800221A707B681433BD
:10049000180000F015FA7B6800225A7007E07B68AC
:1004A00000221A7004E0C04602E0C04600E0C046E8
:1004B000BD460BB090BDC046B85B0008D85B0008D5
:1004C00080B584B000AFF860B9607A60FB68BA6844
:1004D0005A62FB687A689A62C046BD4604B080BD25
:1004E00080B582B000AF786039607B685B6A002BB2
:1004F00028D07B6801221A703B68002B0AD07B68E9
:1005000000225A707B6814333A681100180000F01A
:1005100087F917E07B6802225A707B685B6A0020CB
:1005200098477B681433180000F0CAF97B680022F2
:100530001A617B689B6A002B04D07B689B6A002150
:1005400001209847C046BD4602B080BD80B582B04C
:1005500000AF786039607B685B6A002B28D07B68CD
:1005600002221A703B68002B0AD07B6800225A7066
:100570007B6814333A681100180000F051F917E055
:100580007B6802225A707B685B6A012098477B680F
:100590001433180000F094F97B6800221A617B681C
:1005A0009B6A002B04D07B689B6A0021002098473F
:1005B000C046BD4602B080BD80B584B000AF786053
:1005C0007B685B6A002B00D10FE17B681B78002BF6
:1005D00004D07B681B695A1C7B681A617B681B7896
:1005E000032B5BD000DDF7E0012B02D0022B28D0DB
:1005F000F2E07B681433180000F03CF9031E0ED0C3
:100600007B681433180000F05BF97B6802225A7093
:100610007B685B6A002098477B6800221A617B68D0
:100620009B6A002B00D1D9E07B685B78002B00D15E
:10063000D4E07B689A6A7B681B69190001209047A7
:10064000CCE07B681433180000F014F9031E0ED0C0
:100650007B681433180000F033F97B6801225A706C
:100660007B685B6A012098477B6800221A617B687F
:100670005B78002B00D1B3E07B689B6A002B00D134
:10068000B0E07B685B78002B00D1ABE07B689A6AB6
:100690007B681B69190000209047A3E07B685B78AA
:1006A000012B02D0022B32D095E07B681433180066
:1006B00000F0E0F8031E14D07B6802225A707B68B9
:1006C0005B6A002098477B68143318007B68DA68FF
:1006D0007B689B68D31A190000F0A2F87B6800229F
:1006E0001A617B689B6A002B00D171E07B681B69F3
:1006F0005A425341DAB20E203B181A707B689A6A4C
:100700007B6819693B181B781800904760E07B688C
:100710001433180000F0AEF8031E44D07B689B78B9
:10072000002B03D07B680022DA8005E07B68DB8841
:1007300001339AB27B68DA807B68DA887B689B88B1
:100740009A421DD17B6800221A707B6802225A707F
:100750007B685B6A002098477B681433180000F0C0
:10076000AFF87B6800221A617B689B6A002B3BD044
:100770007B689A6A7B681B6919000220904733E006
:100780007B6801225A707B685B6A012098477B680E
:1007900014331A007B689B681900100000F040F8C1
:1007A0007B6800221A617B689B6A002B12D07B68F1
:1007B0001B695A1E9341DAB20F203B181A707B68EE
:1007C0009A6A7B6819693B181B781800904701E00A
:1007D000C0460AE0C04608E0C04606E0C04604E065
:1007E000C04602E0C04600E0C046BD4604B080BD41
:1007F00080B500AF024B1B681800BD4680BDC046E7
:100800009400002080B500AF044B1B680A331A0027
:10081000024B1A60C046BD4680BDC0469400002011
:1008200080B582B000AF786039607B6801221A70B1
:10083000064B1A687B685A607B683A689A607B68E6
:100840000022DA60C046BD4602B080BD94000020A0
:1008500080B582B000AF7860054B1A687B685A603B
:100860007B6801221A70C046BD4602B080BDC046FA
:100870009400002080B582B000AF78607B681B7860
:10088000002B01D1002314E07B681B78022B01D1DF
:1008900001230EE0094B1A687B685B68D21A7B68FB
:1008A0009B689A4204D37B6802221A70012300E0FD
:1008B00000231800BD4602B080BDC0469400002051
:1008C00080B582B000AF78607B6800221A707B68C8
:1008D0000022DA60C046BD4602B080BD80B582B05D
:1008E00000AFBB1D00221A8017E0114B1A68BB1D18
:1008F0001B889B089BB29B00D3181A68BB1D1B88E2
:100900000C498C4663441B689A4201D001230BE0DA
:10091000BB1DBA1D128804321A80054B1B89BA1DF3
:1009200012889A42E1D300231800BD4602B080BD70
:100930009800002000FC000880B582B000AF78600D
:1009400039600F4B9B7A01221340DBB2002B13D18D
:100950000B4B7A681A600A4B3A685A603A687B68AF
:10096000D31A9BB204339AB2054B1A81044B9A7A7C
:1009700001210A439A7200E0C046BD4602B080BD24
:100980009800002080B582B000AF154B9B7A012201
:100990001340DBB2002B1ED0BB1D00221A8014E0D6
:1009A000BB1D1B880F4A944663441A000C4B196800
:1009B000BB1D1B889B089BB29B00CB1812681A605A
:1009C000BB1DBA1D128804321A80054B1B89BA1D43
:1009D00012889A42E4D3C046BD4602B080BDC046EC
:1009E0009800002000FC0008B0B582B000AFFFF70F
:1009F00075FF0300012B5AD12E4B9B7A0122134025
:100A0000DBB2002B53D002F0F7F801F04DF90300F0
:100A10003B6006E001F048F902003B68D31A0A2B5C
:100A200042D8254B0121180000F048F8031EF1D0F0
:100A3000214B0121180000F041F8BB1D00221A8053
:100A400029E001F031F903003B6006E001F02CF9E8
:100A500002003B68D31A0A2B28D8BB1D1B88164AF4
:100A6000944663441900134B1A68BB1D1B889B08EE
:100A70009BB29B00D3181B681C0000231D002200A2
:100A80002B00022002F022F8031EDFD1BB1DBA1D8D
:100A9000128804321A80074B1B89BA1D12889A42A9
:100AA000CFD302F0CFF802E0C04600E0C046BD461A
:100AB00002B0B0BD9800002000FC000880B586B0F0
:100AC00000AF7860396002F097F80C217B180022A3
:100AD0001A607B187A685A607B183A689A60082313
:100AE000FA187B181100180002F046F9031E01D114
:100AF000012300E000231800BD4606B080BD0000C1
:100B000080B500AF0E4B1B8814211800FFF70EFBB9
:100B100003009BB2DAB20B4B1A700A4B1B78042B02
:100B200003D8084B00221A7006E0064B1B785F2B97
:100B300002D9044B64221A70C046BD4680BDC0462F
:100B4000F80000200801002090B583B000AF02003B
:100B5000FB1D1A70FB1D1B78632B06D90B4BDA6843
:100B60000A4B1B6801329A630CE0FB1D1A78074B95
:100B7000DB685A43054B1C6864211000FFF7D6FA66
:100B80000300A363C046BD4603B090BD64020020CD
:100B900080B582B000AF0200FB1D1A70FB1D1B78F0
:100BA000002B08D0802319019023DB0501221800B7
:100BB00002F01BFB07E0802319019023DB050022D4
:100BC000180002F012FBC046BD4602B080BD000016
:100BD00090B583B000AF254B1800FFF74BFE031E06
:100BE0003ED0224BFA211800FFF71AFEFFF788FFCC
:100BF0001F49204B1122180004F026FB0200FB1DA8
:100C00001A701D491D4B1122180004F01DFB020033
:100C1000BB1D1A70FB1D1B78002B03D1BB1D1B785D
:100C2000002B1FD0134B00220021180000F0DCFA2B
:100C3000124B01220021180000F0D6FA0C4B0D4A8D
:100C400013CA13C31168196012791A710A49094B42
:100C5000112208009B181122190004F003FB02E086
:100C6000C04600E0C046BD4603B090BD0C01002068
:100C7000500100202C010020640100203D010020D3
:100C800080B582B000AFFB1D00221A700DE0FB1D85
:100C90001B782C225A43184BD3181800FFF78CFCF2
:100CA000FB1D1A78FB1D01321A70FB1D1B78002BEF
:100CB000EDD0124B1B780133DAB2104B1A700F4B88
:100CC0001B78092B13D90D4B00221A70FFF79AFDE0
:100CD00080231A029023DB051100180002F068FA45
:100CE00003001A00064B11001800FFF7ABFAC046CC
:100CF000BD4602B080BDC046A400002075010020A2
:100D0000D000002080B582B002AF264B042118002D
:100D100003F052FC234B1B6800229A63224B1800FD
:100D200001F0B8FB2149204B0122180001F02AF9FB
:100D30001F4B180002F076FA1D491E480423009349
:100D400014234E2200F048F91B491C4B00221800C6
:100D5000FFF7B6FB194B00211800FFF7F7FB184A05
:100D6000184B11001800FFF7E7FDFFF70BFE164BBD
:100D700000220021180000F037FA144B0122002154
:100D8000180000F031FA124BFA211800FFF748FD65
:100D9000FA239A000F4B11001800FFF741FDC046DF
:100DA000BD4680BD6402002084010020F8000020C0
:100DB0000802002078010020910B0008A400002008
:100DC00004010020FC000020605B0008705B00084C
:100DD0000C0100201C01002080B500AFFFF704FECD
:100DE000FFF7F6FE214B1800FFF744FD031E39D034
:100DF0001E4B1800FFF72CFD1D4B1B78002B06D057
:100E00001C4A1D4B1100180004F032FB05E01B4A80
:100E1000194B1100180004F02BFB154B1B781A001E
:100E20001749184B180004F023FB114B1B781800CE
:100E3000FFF78AFE144B1B8801339AB2124B1A80BB
:100E4000114B1A88E123DB019A420BD90020FFF7EE
:100E50007BFE0E4B00211800FFF742FB034B1800EE
:100E6000FFF72EFDC046BD4680BDC0461C010020D8
:100E700008010020805B00082C010020845B000832
:100E8000885B00083D01002076010020A4000020BE
:100E900080B582B000AF7860C046BD4602B080BD6C
:100EA00080B500AF044B1B68002B02D0024B1B68BF
:100EB0009847C046BD4680BD0000002080B582B086
:100EC00000AF0200BB1D1A80BB1D1B88180000F07C
:100ED000F5FEC046BD4602B080BDB0B586B002AFDB
:100EE000786008001100FB1C021C1A70BB1C0A1C55
:100EF0001A700F203B18FA1C12780F218A431A70BF
:100F0000FB1C1B781A010E243B191A707B68DB7AD4
:100F1000002B0BD03B183A18127808210A431A709C
:100F20003B193A19127808210A431A70BB1C1B7826
:100F3000012B0ED10F22BB18BA18127801210A43D7
:100F40001A700E22BB18BA18127801210A431A70BF
:100F500011E0BB1C1B78002B0DD10F22BB18BA1857
:100F6000127801218A431A700E22BB18BA1812781F
:100F700001218A431A700F257B191B780422134321
:100F8000DAB208243B191A700120FFF797FF2100FD
:100F90007B187A1912785A700E257B191B78042257
:100FA0001343DAB20C003B199A700120FFF786FF59
:100FB0003B197A191278DA707B6818687B681B799C
:100FC00099B23A19FA239B000093042302F0C0F966
:100FD000C046BD4604B0B0BD80B584B000AFF86077
:100FE000B9601900FB1D1A70BB1D0A1C1A70FB6842
:100FF000BA681A60FB68FA1D12781A71FB68BA1D8C
:1010000012785A71FA681823FB181B789371FB68E1
:1010100028229A72FB680622DA71FB680C221A7287
:10102000FB6814225A72FB680822DA72C820FFF7A4
:1010300045FFFB68002233211800FFF74EFF142004
:10104000FFF73CFFFB68002233211800FFF745FF44
:101050001420FFF733FFFB68002232211800FFF74E
:101060003CFF1420FFF72AFFFB6800222021180014
:10107000FFF733FF1420FFF721FFFB68D979FB68E6
:1010800000221800FFF729FFFB68197AFB6800228D
:101090001800FFF722FFFB68597AFB68002218004E
:1010A000FFF71BFFFB68997AFB6800221800FFF727
:1010B00014FFFB68002201211800FFF70EFFFB68F8
:1010C000002202211800FFF708FFC046BD4604B009
:1010D00080BD80B584B000AF786008001100FB1CB3
:1010E000021C1A70BB1C0A1C1A700F23FB1800226A
:1010F0001A707B685B79FA1C12789A4204D37B6879
:101100005A79FB1C013A1A707B689B79BA1C1278D9
:101110009A4204D37B689A79BB1C013A1A70BB1CB3
:101120001B78002B05D10F23FB18FA1C12781A70BC
:101130001FE0BB1C1B78012B06D10F23FB18FA1CE8
:10114000127840321A7014E0BB1C1B78022B06D1B7
:101150000F23FB18FA1C127814321A7009E0BB1C1A
:101160001B78032B05D10F23FB18FA1C127854327D
:101170001A700F23FB181B78802252421343D9B2F6
:101180007B6800221800FFF7A8FEC046BD4604B0E9
:1011900080BD80B582B000AF78600A00FB1C1A7079
:1011A000FB1C19787B6801221800FFF796FEC046E9
:1011B000BD4602B080BD80B582B000AF78603960B6
:1011C00008E03B685A1C3A601A787B6811001800E6
:1011D000FFF7DFFF3B681B78002BF2D1C046C0460B
:1011E000BD4602B080BD0000B0B588B000AF7860E9
:1011F00008001100FB1C021C1A70BB1C0A1C1A7090
:10120000BB1C1B78012B42D81F23FB1800221A702D
:1012100021E01F257B191C787B681800FEF774FFFE
:1012200003009C420AD27B191B787A68D2187B197A
:101230001B7811780C22BA18D15406E01F23FB1832
:101240001B780C22BA182021D1541F217B181A7840
:101250007B1801321A701F23FB181B78102BD8D96A
:10126000FB1C1B781022D31A0C243A190021D154EC
:10127000BB1C1A78FB1C1978074B1800FFF729FFD5
:101280003A19054B11001800FFF795FF00E0C04622
:10129000BD4608B0B0BDC0467801002080B500AFA3
:1012A00000F0A8FC00F01CF800F00EFA00F0EEF9D7
:1012B00000F016F900F078F800F0D2F800F030F9FC
:1012C000FFF720FD054B180002F05AFB034B1800F6
:1012D00002F0A0FBFFF780FDF8E7C04654020020B3
:1012E00090B595B000AF20243B19180030231A00A8
:1012F000002103F0C0FF1023FB18180010231A0070
:10130000002103F0B8FF3B00180010231A00002151
:1013100003F0B1FF21007B180A221A607B1801221A
:10132000DA607B1810221A617B180122DA617B18BF
:1013300002221A627B1800225A627B18A0229203B2
:101340009A627B180022DA627B18180002F072FBA6
:10135000031E01D000F07AFA10217B1807221A60D0
:101360007B1802225A607B1800229A607B180022A8
:10137000DA607B180121180002F076FE031E01D00E
:1013800000F064FA3B0020221A603B000022DA6081
:101390003B00180002F09AFF031E01D000F056FA3D
:1013A000C046BD4615B090BD80B584B000AF3B1DB2
:1013B00018000C231A00002103F05DFF264B274A7A
:1013C0001A60254B802212065A60234B00229A6035
:1013D000214B0022DA60204B01221A611E4B0422AD
:1013E0005A611D4B00221A761B4B00225A761A4B6B
:1013F00001229A76184B0022DA76174BC222FF326E
:10140000DA61154B00221A62134B242201219954F0
:10141000114B01229A62104B180000F073FC031E5E
:1014200001D000F013FA3B1D00221A603B1D802200
:1014300052015A603B1D07229A603A1D064B11006B
:10144000180000F031FE031E01D000F0FFF9C04685
:10145000BD4604B080BDC046840100200024014088
:1014600080B500AF1B4B1C4A1A601A4B1B4A5A60CE
:10147000184B00229A60174B0122DA60154B0022AC
:101480001A61144B00225A61124B00229A61114BCF
:101490000022DA610F4B00221A620E4B180001F095
:1014A000C1FE031E01D000F0D1F90A4B0021180043
:1014B00002F0CEF9031E01D000F0C8F9054B00215F
:1014C000180002F011FA031E01D000F0BFF9C04667
:1014D000BD4680BD08020020005400400E090020D7
:1014E00080B500AF0B4B0C4A1A600A4B04225A60BD
:1014F000084B0A4ADA60074B084A9A60054B180005
:1015000002F03EFA031E01D000F0A0F9C046BD462D
:1015100080BDC0465402002000300040FF0F000094
:1015200080B596B000AF4823FB18180010231A00AE
:10153000002103F0A0FE4023FB18180008231A0026
:10154000002103F098FE2423FB1818001C231A0026
:10155000002103F090FE3B1D180020231A000021FB
:1015600003F089FE464B474A1A60454B30225A60C9
:10157000434B00229A60424B434ADA60404B0022C0
:101580001A613F4B00225A613D4B00229A613C4B4D
:10159000180002F069FF031E01D000F057F948213E
:1015A0007B18802252011A607A18354B11001800FE
:1015B00003F070F9031E01D000F048F9304B180019
:1015C00002F0A2FF031E01D000F040F940217B1879
:1015D00000221A607B1800225A607A18284B1100EA
:1015E000180003F051FD031E01D000F02FF9242153
:1015F0007B1860221A607B1800225A607B18022236
:101600009A607B180022DA607B1800221A617B182E
:1016100000225A617B1800229A617918184B042223
:10162000180003F07BF8031E01D000F00FF93B1DFA
:1016300000221A603B1D00225A603B1D00229A6066
:101640003B1D0022DA603B1D00221A613B1D8022F7
:1016500092015A613B1D0022DA613A1D084B1100CC
:10166000180003F069FD031E01D000F0EFF8044BF1
:10167000180000F0F5F9C046BD4616B080BDC04662
:101680006402002000400140E703000080B582B002
:1016900000AF0C4B5A690B4B01210A435A61094BAD
:1016A0005B69012213407B607B68002200210920D6
:1016B00001F03AF8092001F04CF8C046BD4602B0EE
:1016C00080BDC0460010024090B58BB000AF14241E
:1016D0003B19180014231A00002103F0CCFD554BD0
:1016E0005A69544B802109030A435A61514B5A6984
:1016F00080231B0313403B613B694E4B5A694D4BA2
:101700008021C9030A435A614A4B5A698023DB038B
:101710001340FB60FB68474B5A69464B80218902A6
:101720000A435A61434B5A6980239B021340BB60B2
:10173000BB68404B5A693F4B8021C9020A435A613A
:101740003C4B5A698023DB0213407B607B6890230B
:1017500019019023DB050022180001F046FD3B191A
:10176000E02212021A603B1903225A603B19002240
:101770009A603B19304A1900100001F0A9FB3B198F
:10178000C3221A603B1903225A603B1900229A6057
:101790003B192A4A1900100001F09AFB3B19284A0C
:1017A0001A603B1903225A603B1900229A603A19C9
:1017B0009023DB051100180001F08AFB3B19214A38
:1017C0001A603B1903225A603B1900229A603B19A8
:1017D0001D4A1900100001F07BFB21007B189022AC
:1017E00012011A600C003B1901225A603B190222B7
:1017F0009A603B190022DA603A199023DB05110048
:10180000180001F065FB21007B18802212021A608B
:101810007B1800225A607B1801229A607A18902364
:10182000DB051100180001F053FBC046BD460BB0AC
:1018300090BDC04600100240000800480014004857
:10184000F6160000FFFC00000004004880B500AF61
:1018500072B6C046FEE7000080B582B000AF0F4B05
:101860009A690E4B01210A439A610C4B9B69012234
:1018700013407B607B68094BDA69084B802149057E
:101880000A43DA61054BDA6980235B0513403B604C
:101890003B68C046BD4602B080BDC0460010024055
:1018A00090B58BB000AF786014243B191800142356
:1018B0001A00002103F0DFFC7B681B682D4A93426D
:1018C00053D12D4B9A692C4B802189000A439A6190
:1018D000294B9A6980239B0013403B613B69264B4F
:1018E0005A69254B802189020A435A61224B5A6961
:1018F00080239B021340FB60FB683B1901221A60A6
:101900003B1903225A603B1900229A603A1990232E
:10191000DB051100180001F0DBFA184B184A1A60B9
:10192000164B00225A60154B00229A60134B8022FE
:10193000DA60124B802252001A61104B8022D200D2
:101940005A610E4B20229A610C4B0022DA610B4B3C
:10195000180000F023FF031E01D0FFF777FF7B681C
:10196000064A1A63054B7A685A62C046BD460BB0F8
:1019700090BDC0460024014000100240C401002078
:101980000800024090B58BB000AF786014243B197A
:10199000180014231A00002103F06DFC7B681B68FB
:1019A0001C4A934232D11C4B5A691B4B8021C902FD
:1019B0000A435A61184B5A698023DB0213403B618A
:1019C0003B693B19C02292001A6021007B18122249
:1019D0005A607B1801229A607B180322DA607B1818
:1019E00001221A617B180D4A1900100001F070FAEB
:1019F000094BDA69084B802189030A43DA61064BF7
:101A0000DA6980239B031340FB60FB68C046BD4638
:101A10000BB090BD0054004000100240000400488C
:101A200080B584B000AF78607B681B680A4A934237
:101A30000DD10A4B9A69094B802149020A439A61E8
:101A4000064B9A6980235B021340FB60FB68C0462B
:101A5000BD4604B080BDC0460040014000100240B9
:101A600090B589B000AF78600C243B19180014239E
:101A70001A00002103F0FFFB7B681B68154A9342A4
:101A800024D1154B5A69144B802189020A435A61AB
:101A9000114B5A6980239B021340BB60BB68210035
:101AA0007B1808221A607B1802225A607B180022D9
:101AB0009A607B180022DA607B1800221A617A187B
:101AC0009023DB051100180001F002FAC046BD4664
:101AD00009B090BD004001400010024080B500AF49
:101AE000FEE780B500AFFEE780B500AFC046BD465B
:101AF00080BD80B500AFC046BD4680BD80B500AF9B
:101B000000F0C0F800F042FEC046BD4680BD0000B7
:101B100080B500AF034B180000F0EEFEC046BD4696
:101B200080BDC046C401002080B586B000AF78609B
:101B3000144A154BD31A7B617B693B61134B1B68BD
:101B4000002B02D1114B124A1A60104B1A687B68A5
:101B5000D3183A699A4207D203F04CFB03000C22D7
:101B60001A6001235B4209E0084B1B68FB60074BCE
:101B70001A687B68D218054B1A60FB681800BD46CE
:101B800006B080BD0020002000040000AC02002050
:101B9000E802002080B500AFC046BD4680BD000011
:101BA0000D4885460D480E490E4A002302E0D458E0
:101BB000C4500433C4188C42F9D30B4A0B4C002395
:101BC00001E013600432A242FBD3FFF7E3FF03F00E
:101BD00017FBFFF763FBFEE700200020000000205A
:101BE00074000020385C000878000020E802002023
:101BF000FEE7000080B500AF074B1A68064B1021C6
:101C00000A431A60002000F009F8FFF725FE0023C0
:101C10001800BD4680BDC0460020024090B583B08C
:101C200000AF7860144B1C68144B1B781900FA2322
:101C30009800FEF77BFA030019002000FEF776FA01
:101C40000300180000F095FD031E01D001230FE0F2
:101C50007B68032B0BD8796801235B4200221800B4
:101C600000F062FD064B7A681A60002300E0012351
:101C70001800BD4603B090BD040000200C000020F9
:101C80000800002080B500AF054B1B781A00054BFB
:101C90001B68D218034B1A60C046BD4680BDC046C3
:101CA0000C000020B002002080B500AF024B1B6882
:101CB0001800BD4680BDC046B002002080B584B08B
:101CC00000AF7860FFF7F0FF0300BB607B68FB604C
:101CD000FB68013305D00A4B1B781A00FB689B1880
:101CE000FB60C046FFF7E0FF0200BB68D31AFA684A
:101CF0009A42F7D8C046C046BD4604B080BDC04633
:101D00000C00002080B584B000AF78600F23FB1872
:101D100000221A700023BB607B68002B01D10123D5
:101D200025E17B689B6B002B0AD17B680022DA637C
:101D30007B683422002199547B681800FFF7B0FDBE
:101D40007B689B6B1022134000D003E10F23FB182C
:101D50001B78002B00D0FDE07B681B689B68042289
:101D6000134000D0F6E07B689B6B834A134002224D
:101D70001A437B689A637B681B689B680322134045
:101D8000012B12D17B681B681B6801221340012BB9
:101D900009D07B681B68DA6880231B021A40802305
:101DA0001B029A4201D1012300E00023002B16D12F
:101DB0007B681B68DB681822934319007B689A686C
:101DC0007B681B680A43DA607B681B681B699B00A1
:101DD00099087B685A687B681B680A431A617B68AC
:101DE0001B68DA687B681B6864490A40DA607B68B4
:101DF0001B7E9A037B685B7EDB031A437B689B7EBA
:101E00005B031A437B689B6A012B02D080235B0132
:101E100000E000231A437B68DB681A437B681B6978
:101E2000022B01D1042300E000231A437B68242104
:101E30005B5C5B001343BA681343BB607B68DB7E6B
:101E4000012B15D17B689B7E002B05D1BB688022BE
:101E500052021343BB600BE07B689B6B20221A434A
:101E60007B689A637B68DB6B01221A437B68DA63C9
:101E70007B68DA69C223FF339A4207D07B68DA694C
:101E80007B681B6A1343BA681343BB607B681B689B
:101E9000D9687B681B68BA680A43DA607B68DA6ACB
:101EA00080235B059A421BD07B68DB6A012B17D02D
:101EB0007B68DB6A022B13D07B68DB6A032B0FD0B5
:101EC0007B68DB6A042B0BD07B68DB6A052B07D0B1
:101ED0007B68DB6A062B03D07B68DB6A072B12D199
:101EE0007B681B685A697B681B6807218A435A61B3
:101EF0007B681B6859697B68DB6A07221A407B682C
:101F00001B680A435A617B681B68DB681C4A1340E4
:101F1000BA689A420BD17B680022DA637B689B6BBC
:101F20000322934301221A437B689A631CE07B6877
:101F30009B6B1222934310221A437B689A637B683F
:101F4000DB6B01221A437B68DA630F23FB18012243
:101F50001A7009E07B689B6B10221A437B689A63B6
:101F60000F23FB1801221A700F23FB181B7818008F
:101F7000BD4604B080BDC046FDFEFFFF1902FEFF56
:101F8000E7FF3F8390B587B000AFF860B9607A6033
:101F90001723FB1800221A70FB681B689B68042239
:101FA00013405ED1FB6834229B5C012B01D10223DC
:101FB0005EE0FB68342201219954FB685B7E012BB3
:101FC00007D01723FC18FB68180000F063F9030022
:101FD00023701723FB181B78002B46D1FB689B6BE3
:101FE000254A1340802252001A43FB689A63FB681B
:101FF0000022DA63FB68342200219954FB681B6BD2
:102000001E4A9A62FB681B6B1D4ADA62FB681B6BF7
:102010001C4A1A63FB681B681C221A60FB681B6859
:102020005A68FB681B6810210A435A60FB681B68EA
:10203000DA68FB681B6801210A43DA60FB68186BE9
:10204000FB681B6840331900BA687B6800F0EEFB40
:10205000FB681B689A68FB681B6804210A439A6046
:1020600003E01723FB1802221A701723FB181B78B2
:102070001800BD4607B090BDFEF0FFFF8D2300089D
:10208000412400085F24000880B582B000AF78606A
:10209000C046BD4602B080BD80B582B000AF78605A
:1020A000C046BD4602B080BD80B584B000AF786048
:1020B00039600F23FB1800221A700023BB607B6875
:1020C000DA6A80235B059A4211D07B68DB6A012BB8
:1020D0000DD07B68DB6A022B09D07B68DB6A032B9F
:1020E00005D07B68DB6A042B01D07B68DB6A7B68E8
:1020F00034229B5C012B01D10223BBE07B6834229C
:10210000012199547B681B689B680422134000D00E
:102110009FE03B685B68594A934200D177E07B6857
:102120001B68996A3B681B6801229A407B681B68A0
:102130000A439A627B68DA6A80235B059A4237D049
:102140007B68DB6A012B33D07B68DB6A022B2FD0E4
:102150007B68DB6A032B2BD07B68DB6A042B27D0E0
:102160007B68DB6A052B23D07B68DB6A062B1FD0DC
:102170007B68DB6A072B1BD03B689A687B681B680F
:102180005B6907210B409A4212D07B681B685A6931
:102190007B681B6807218A435A617B681B68596901
:1021A0003B689B6807221A407B681B680A435A6198
:1021B0003B681B68102B03D03B681B68112B52D166
:1021C0002F4B19683B681B68102B02D180231B041E
:1021D00001E08023DB032A4A0B4313603B681B6842
:1021E000102B40D1274B1B6827491800FDF79EFF95
:1021F00003001A0013009B009B185B00BB6002E009
:10220000BB68013BBB60BB68002BF9D12BE07B684E
:102210001B689A6A3B681B68012199400B00D943EF
:102220007B681B680A409A623B681B68102B03D0CE
:102230003B681B68112B16D1114B19683B681B6852
:10224000102B01D1114A00E0114A0D4B0A401A60CF
:1022500009E07B689B6B20221A437B689A630F23FB
:10226000FB1801221A707B683422002199540F2335
:10227000FB181B781800BD4604B080BD011000009B
:10228000082701400400002040420F00FFFF7FFFAD
:10229000FFFFBFFF80B584B000AF78600023FB6014
:1022A0000023BB607B681B689B6803221340012BE3
:1022B00012D17B681B681B6801221340012B09D0D7
:1022C0007B681B68DA6880231B021A4080231B028C
:1022D0009A4201D1012300E00023002B4BD17B68FF
:1022E0001B689B68264A13400DD07B689B6B1022AD
:1022F0001A437B689A637B68DB6B01221A437B6815
:10230000DA63012338E07B681B689A687B681B6886
:1023100001210A439A601B4B1B681B491800FDF7FB
:1023200005FF0300BB6002E0BB68013BBB60BB680C
:10233000002BF9D1FFF7B8FC0300FB6014E0FFF7B6
:10234000B3FC0200FB68D31A022B0DD97B689B6B90
:1023500010221A437B689A637B68DB6B01221A4365
:102360007B68DA63012307E07B681B681B68012236
:102370001340012BE3D100231800BD4604B080BDFB
:10238000170000800400002040420F0080B584B098
:1023900000AF78607B685B6AFB60FB689B6B5022D8
:1023A000134040D1FB689B6B802292001A43FB686C
:1023B0009A63FB681B68DA68C0231B0113402DD1A8
:1023C000FB689B7E002B29D1FB681B681B680822D9
:1023D0001340082B22D1FB681B689B680422134022
:1023E00010D1FB681B685A68FB681B680C218A4384
:1023F0005A60FB689B6B114A134001221A43FB6829
:102400009A630BE0FB689B6B20221A43FB689A637C
:10241000FB68DB6B01221A43FB68DA63FB68180078
:10242000FEF736FD05E0FB681B6B1B6B7A6810003E
:102430009847C046BD4604B080BDC046FEFEFFFFC3
:1024400080B584B000AF78607B685B6AFB60FB6836
:102450001800FFF719FEC046BD4604B080BD80B528
:1024600084B000AF78607B685B6AFB60FB689B6B45
:1024700040221A43FB689A63FB68DB6B04221A4311
:10248000FB68DA63FB681800FFF706FEC046BD462E
:1024900004B080BD80B586B000AF78601723FB180C
:1024A00000221A7000233B610023FB607B6834220A
:1024B0009B5C012B01D1022384E07B683422012143
:1024C00099547B681B689B6803221340012B12D12F
:1024D0007B681B681B6801221340012B09D07B68B5
:1024E0001B68DA6880231B021A4080231B029A4271
:1024F00001D1012300E00023002B52D17B689B6BAC
:10250000324A134002221A437B689A637B681B6835
:10251000DB6803221340FB607B681B68DA687B681A
:102520001B6803218A43DA607B681B689A687B68B2
:102530001B68802109060A439A60FFF7B5FB030078
:102540003B6114E0FFF7B0FB02003B69D31A022B9A
:102550000DD97B689B6B1222934310221A437B6830
:102560009A637B6834220021995401232AE07B6816
:102570001B689B68DB0FDA0780231B069A42E1D0B9
:102580007B681B68D9687B681B68FA680A43DA6055
:102590007B689B6B0322934301221A437B689A63F7
:1025A00009E07B689B6B20221A437B689A631723A0
:1025B000FB1801221A707B683422002199541723DA
:1025C000FB181B781800BD4606B080BDFDFEFFFF5E
:1025D00080B582B000AF0200FB1D1A70FB1D1B7896
:1025E0007F2B09D8FB1D1B781A001F231A40044BB0
:1025F000012191400A001A60C046BD4602B080BD6C
:1026000000E100E090B583B000AF02003960FB1D2F
:102610001A70FB1D1B787F2B28D82F4AFB1D1B78B7
:102620005BB29B08C0339B009B58FA1D12781100C7
:1026300003220A40D200FF2191400A00D2431A40EF
:1026400011003B689B01FF221A40FB1D1B781800FC
:1026500003230340DB009A401F48FB1D1B785BB23D
:102660009B080A43C0339B001A5031E01B4AFB1DF4
:102670001B7819000F230B40083B9B0806339B0077
:10268000D31804331B68FA1D1278110003220A4084
:10269000D200FF2191400A00D2431A4011003B684A
:1026A0009B01FF221A40FB1D1B78180003230340E7
:1026B000DB009A400948FB1D1B781C000F232340B8
:1026C000083B9B080A4306339B00C31804331A6077
:1026D000C046BD4603B090BD00E100E000ED00E063
:1026E00080B582B000AF78607B685A1E80235B049F
:1026F0009A4201D3012310E00A4B7A68013A5A60EA
:1027000001235B4203211800FFF77CFF054B0022E9
:102710009A60044B07221A6000231800BD4602B0DD
:1027200080BDC04610E000E080B584B000AFB96065
:102730007A600F217B18021C1A70BA687B181B780C
:102740005BB211001800FFF75DFFC046BD4604B044
:1027500080BD80B582B000AF0200FB1D1A70FB1D6A
:102760001B785BB21800FFF733FFC046BD4602B0CE
:1027700080BD80B582B000AF78607B681800FFF73D
:10278000AFFF03001800BD4602B080BD80B500AFAA
:10279000FEF786FBC046BD4680BD000080B584B014
:1027A00000AF78600023FB607B68002B01D1012320
:1027B00036E07B682122022199547B681B681B68E4
:1027C000FB60FB68184A1340FB607B685A687B68B3
:1027D0009B681A437B68DB681A437B681B691A4352
:1027E0007B685B691A437B689B691A437B68DB697A
:1027F0001343FA681343FB607B681B68FA681A602E
:102800007B68180000F046F97B6800229A637B68B9
:102810002122012199547B68202200219954002310
:102820001800BD4604B080BD0FC0FFFF80B586B064
:1028300000AFF860B9607A603B601723FB18002294
:102840001A70FB6820229B5C012B01D102234FE010
:10285000FB68202201219954FB6821229B5CDBB29A
:10286000012B3AD1FB68212202219954FB680022F6
:102870009A63FB681B681A68FB681B6801218A431E
:102880001A603B687A68B968F86800F0D7F8FB68A6
:10289000DB6A002B08D0FB681B681A68FB681B68A2
:1028A0000E210A431A600FE0FB681B681A68FB6878
:1028B0001B680A210A431A60FB681B681A68FB68D8
:1028C0001B6804218A431A60FB681B681A68FB684E
:1028D0001B6801210A431A6007E0FB6820220021DF
:1028E00099541723FB1802221A701723FB181B7820
:1028F0001800BD4606B080BD80B584B000AF7860DA
:102900007B68DB6B1B68FB607B681B681B68BB60BC
:102910007B681B6C04229A401300FA68134024D091
:10292000BB680422134020D07B681B681B682022F0
:10293000134007D17B681B681A687B681B680421F9
:102940008A431A607B681A6C7B68DB6B04219140B8
:102950000A005A607B68DB6A002B00D16AE07B6862
:10296000DB6A7A681000984764E07B681B6C02227F
:102970009A401300FA6813402BD0BB680222134020
:1029800027D07B681B681B68202213400BD17B6813
:102990001B681A687B681B680A218A431A607B6877
:1029A0002122012199547B681A6C7B68DB6B022120
:1029B00091400A005A607B682022002199547B686C
:1029C0009B6A002B36D07B689B6A7A681000984718
:1029D00030E07B681B6C08229A401300FA681340B1
:1029E00028D0BB680822134024D07B681B681A6873
:1029F0007B681B680E218A431A607B681A6C7B68AF
:102A0000DB6B012191400A005A607B6801229A63C6
:102A10007B682122012199547B682022002199544E
:102A20007B681B6B002B05D07B681B6B7A681000E2
:102A30009847FFE7C046BD4604B080BD80B584B06E
:102A400000AFF860B9607A603B60FB681A6CFB68A5
:102A5000DB6B012191400A005A60FB681B683A68F1
:102A60005A60FB685B68102B08D1FB681B687A68AA
:102A70009A60FB681B68BA68DA6007E0FB681B684D
:102A8000BA689A60FB681B687A68DA60C046BD461F
:102A900004B080BD80B582B000AF78607B681B68F1
:102AA000084A9446634414211800FDF73FFB0300D5
:102AB0009A007B681A647B68034ADA63C046BD46A5
:102AC00002B080BDF8FFFDBF00000240F0B587B046
:102AD00000AFF860B9603A607B601723FB180122F1
:102AE0001A701623FB1800221A701523FB180022F7
:102AF0001A703E4B1B7E012B01D1022372E03B4B2F
:102B000001221A761723FE18394B180000F0C4F87A
:102B1000030033701723FB181B78002B5CD1FB6874
:102B2000012B04D11523FB1801221A700BE0FB685E
:102B3000022B04D11523FB1802221A7003E015237F
:102B4000FB1804221A701623FB1800221A7039E0B1
:102B500016217B181B785A00BB68D0187B181B788D
:102B60001B011A00203A002A03DB7968D1400C00CF
:102B700008E02022D21A796891400A003968D940C9
:102B80000C0014437A68DA401500A3B2190000F073
:102B900067F81723FE18164B180000F07DF80300A5
:102BA0003370144B1A69134B01218A431A6117239E
:102BB000FB181B78002B0ED116217B181A787B1876
:102BC00001321A701623FA181523FB1812781B7895
:102BD0009A42BDD300E0C046044B00221A76172368
:102BE000FB181B781800BD4607B0F0BDB8020020E6
:102BF00050C300000020024080B582B000AFFB1D32
:102C000000221A700C4B1B69802213400DD00A4B16
:102C10000A4A5A60084B0A4A5A60074B1B698022CD
:102C2000134002D0FB1D01221A70FB1D1B781800F7
:102C3000BD4602B080BDC04600200240230167456A
:102C4000AB89EFCD80B500AF044B1A69034B8021EF
:102C50000A431A6100231800BD4680BD00200240CF
:102C600080B582B000AF78600A00BB1C1A80084BA8
:102C70000022DA61074B1A69064B01210A431A61E7
:102C80007B68BA1C12881A80C046BD4602B080BD5F
:102C9000B80200200020024080B584B000AF786008
:102CA000FFF702F80300FB600FE07B6801330CD0F4
:102CB0007B68002B07D0FEF7F7FF0200FB68D31AF2
:102CC0007A689A4201D203231FE0124BDB6801228B
:102CD0001340012BE9D00F4BDB6820221340202B3F
:102CE00002D10C4B2022DA600A4BDB681022134021
:102CF000102B05D0074BDB6804221340042B03D1B3
:102D000000F00AF8012300E000231800BD4604B0DB
:102D100080BDC0460020024080B582B000AF0023D5
:102D20007B60134BDB6810221340102B09D1114B31
:102D3000DB6902221A430F4BDA617B6810221343CE
:102D40007B600B4BDB6804221340042B09D1094B39
:102D5000DB6901221A43074BDA617B6804221343C3
:102D60007B60034B7A68DA60C046BD4602B080BD26
:102D700000200240B8020020B0B584B000AF7860F7
:102D800039600F23FB1801221A700023BB60324BFD
:102D90001B7E012B01D102235AE02F4B01221A7610
:102DA0007B681B68012B16D12C4B1800FFF774FFB2
:102DB000031E47D100F056F80F23FC18274B1800CC
:102DC000FFF76AFF03002370254B1A69244B042187
:102DD0008A431A6136E0214B1800FFF75DFF031E9E
:102DE00030D13B68012252421A607B685B68BB604D
:102DF0001FE0BB68180000F04DF80F257C19174B39
:102E00001800FFF749FF03002370154B1A69144B94
:102E100002218A431A617B191B78002B03D03B687F
:102E2000BA681A600EE0BB688022D2009446634400
:102E3000BB607B689B689A027B685B68D318BA6842
:102E40009A42D6D3044B00221A760F23FB181B7824
:102E50001800BD4604B0B0BDB802002050C3000049
:102E60000020024080B500AF084B0022DA61084B19
:102E70001A69074B04210A431A61054B1A69044B6E
:102E800040210A431A61C046BD4680BDB8020020F9
:102E90000020024080B582B000AF78600A4B00226B
:102EA000DA610A4B1A69094B02210A431A61074B7E
:102EB0007A685A61054B1A69044B40210A431A612A
:102EC000C046BD4602B080BDB802002000200240CE
:102ED00080B586B000AF7860396000237B614FE138
:102EE0003B681B6801217A6991400A001340FB602E
:102EF000FB68002B00D140E13B685B68012B0BD0E5
:102F00003B685B68022B07D03B685B68112B03D0E2
:102F10003B685B68122B30D17B689B683B617B69A7
:102F20005B0003229A401300DA433B6913403B6184
:102F30003B68DA687B695B009A4013003A69134387
:102F40003B617B683A699A607B685B683B61012200
:102F50007B699A401300DA433B6913403B613B684D
:102F60005B681B0901221A407B699A4013003A6989
:102F700013433B617B683A695A607B68DB683B615D
:102F80007B695B0003229A401300DA433B691340DC
:102F90003B613B689A687B695B009A4013003A6921
:102FA00013433B617B683A69DA603B685B68022BDC
:102FB00003D03B685B68122B23D17B69DA087B68FE
:102FC00008329200D3583B617B69072213409B0073
:102FD0000F229A401300DA433B6913403B613B6880
:102FE0001A697B6907210B409B009A4013003A69DC
:102FF00013433B617B69DA087B68083292003969C8
:10300000D1507B681B683B617B695B0003229A405F
:103010001300DA433B6913403B613B685B68032262
:103020001A407B695B009A4013003A6913433B6185
:103030007B683A691A603B685A6880235B051340D5
:1030400000D19AE0544B9A69534B01210A439A618B
:10305000514B9B6901221340BB60BB684F4A7B699F
:103060009B0802339B009B583B617B690322134002
:103070009B000F229A401300DA433B6913403B61E7
:103080007A689023DB059A4213D07B68444A9342C6
:103090000DD07B68434A934207D07B68424A9342F3
:1030A00001D1032306E0052304E0022302E001230B
:1030B00000E000237A6903210A40920093403A69B4
:1030C00013433B6135497B699B0802339B003A6996
:1030D0005A50364B1B683B61FB68DA433B6913402F
:1030E0003B613B685A6880235B02134003D03A6916
:1030F000FB6813433B612D4B3A691A602B4B5B68AD
:103100003B61FB68DA433B6913403B613B685A68AB
:1031100080239B02134003D03A69FB6813433B6151
:10312000224B3A695A60214B9B683B61FB68DA434A
:103130003B6913403B613B685A6880235B03134043
:1031400003D03A69FB6813433B61184B3A699A60B4
:10315000164BDB683B61FB68DA433B6913403B611C
:103160003B685A6880239B03134003D03A69FB688D
:1031700013433B610D4B3A69DA607B6901337B6134
:103180003B681A687B69DA40131E00D0A8E6C04687
:10319000C046BD4606B080BD0010024000000140A0
:1031A0000004004800080048000C004800040140EA
:1031B00080B584B000AF78600A00BB1C1A807B68C1
:1031C0001B69BA1C1288134004D00F23FB1801227C
:1031D0001A7003E00F23FB1800221A700F23FB184C
:1031E0001B781800BD4604B080BD80B582B000AF2A
:1031F000786008001100BB1C021C1A807B1C0A1C92
:103200001A707B1C1B78002B04D0BB1C1A887B68AF
:103210009A6103E0BB1C1A887B689A62C046BD466F
:1032200002B080BD80B582B000AF78607B68002BB3
:1032300001D1012382E07B6841229B5CDBB2002B41
:1032400007D17B684022002199547B681800FEF763
:1032500099FB7B684122242199547B681B681A687A
:103260007B681B6801218A431A607B685A687B6807
:103270001B6834490A401A617B681B689A687B683E
:103280001B6831490A409A607B68DB68012B08D1D2
:103290007B689A687B681B68802109020A439A60F0
:1032A00007E07B689A687B681B68842109020A43EF
:1032B0009A607B68DB68022B04D17B681B688022E4
:1032C00012015A607B681B685A687B681B681F493B
:1032D0000A435A607B681B68DA687B681B681A4976
:1032E0000A40DA607B681A697B685B691A431100DF
:1032F0007B689B691A027B681B680A43DA607B68FB
:10330000D9697B681A6A7B681B680A431A607B6804
:103310001B681A687B681B6801210A431A607B6876
:1033200000225A647B684122202199547B68002244
:103330001A637B6842220021995400231800BD467D
:1033400002B080BDFFFFFFF0FF7FFFFF00800002A3
:1033500090B589B002AFF86008007A6019000A23BE
:10336000FB18021C1A800823FB180A1C1A80FB6831
:1033700041229B5CDBB2202B00D0E7E0FB684022BF
:103380009B5C012B01D10223E1E0FB68402201217B
:103390009954FEF789FC03007B6180231902F868C9
:1033A0007B6900931923012200F0FCF8031E01D071
:1033B0000123CCE0FB68412221219954FB68422281
:1033C00010219954FB6800225A64FB687A685A629B
:1033D000FB680822BA1812885A85FB6800225A63D3
:1033E000FB685B8D9BB2FF2B11D9FB68FF221A850E
:1033F000FB681B8DDAB280235C040A23FB18198852
:10340000F868554B0093230000F0ECF975E0FB6879
:103410005B8D9AB2FB681A85FB681B8DDAB280233C
:103420009C040A23FB181988F8684B4B009323006F
:1034300000F0D8F961E07A69B96AFB68180000F019
:10344000F0F8031E01D0012381E0FB685B6A1A7863
:10345000FB681B689A62FB685B6A5A1CFB685A62CD
:10346000FB685B8D9BB2013B9AB2FB685A85FB6897
:103470001B8D013B9AB2FB681A85FB685B8D9BB282
:10348000002B3AD0FB681B8D002B36D1BA6AF86846
:103490007B69009313000022802100F083F8031E53
:1034A00001D0012353E0FB685B8D9BB2FF2B11D948
:1034B000FB68FF221A85FB681B8DDAB280235C044F
:1034C0000A23FB181988F86800230093230000F0F2
:1034D00089F912E0FB685B8D9AB2FB681A85FB687C
:1034E0001B8DDAB280239C040A23FB181988F86824
:1034F00000230093230000F075F9FB685B8D9BB2FD
:10350000002B98D17A69B96AFB68180000F0C8F8F6
:10351000031E01D001231AE0FB681B682022DA6138
:10352000FB681B685A68FB681B680C490A405A60B4
:10353000FB68412220219954FB68422200219954C2
:10354000FB68402200219954002300E00223180068
:10355000BD4607B090BDC0460020008000E800FED8
:1035600080B582B000AF78607B681B689B690222DF
:103570001340022B03D17B681B6800229A627B6890
:103580001B689B6901221340012B07D07B681B68D5
:103590009A697B681B6801210A439A61C046BD464F
:1035A00002B080BD80B584B000AFF860B9603B6008
:1035B000FB1D1A7021E03B6801331ED0FEF774FB3F
:1035C0000200BB69D31A3A689A4202D33B68002BC7
:1035D00013D1FB685B6C20221A43FB685A64FB68BA
:1035E000412220219954FB68422200219954FB6812
:1035F00040220021995401230FE0FB681B689B695E
:10360000BA681340BA68D31A5A425341DBB21A005F
:10361000FB1D1B789A42CED000231800BD4604B093
:1036200080BD80B584B000AFF860B9607A602BE0EF
:103630007A68B968FB68180000F06EF8031E01D0C4
:10364000012329E0BB6801331ED0FEF72DFB0200E9
:103650007B68D31ABA689A4202D3BB68002B13D195
:10366000FB685B6C20221A43FB685A64FB684122AA
:1036700020219954FB68422200219954FB68402282
:1036800000219954012307E0FB681B689B69022213
:103690001340022BCCD100231800BD4604B080BDDE
:1036A00080B584B000AFF860B9607A6028E07A68CD
:1036B000B968FB68180000F02FF8031E01D0012341
:1036C00026E0FEF7F1FA02007B68D31ABA689A4244
:1036D00002D3BB68002B13D1FB685B6C20221A431A
:1036E000FB685A64FB68412220219954FB684222FE
:1036F00000219954FB68402200219954012307E0DE
:10370000FB681B689B6920221340202BCFD100232C
:103710001800BD4604B080BD80B584B000AFF8602D
:10372000B9607A60FB681B689B6910221340102BFC
:1037300051D121E0BB6801331ED0FEF7B5FA02007B
:103740007B68D31ABA689A4202D3BB68002B13D1A4
:10375000FB685B6C20221A43FB685A64FB684122B9
:1037600020219954FB68422200219954FB68402291
:103770000021995401232FE0FB681B689B692022DC
:103780001340202BD6D1FB681B681022DA61FB683E
:103790001B682022DA61FB681800FFF7E1FEFB6876
:1037A0001B685A68FB681B680D490A405A60FB6831
:1037B0005B6C04221A43FB685A64FB684122202197
:1037C0009954FB68422200219954FB684022002151
:1037D0009954012300E000231800BD4604B080BDC9
:1037E00000E800FE90B585B000AFF8600800110059
:1037F0007B600A243B19021C1A8009203B180A1C12
:103800001A70FB681B685B683A6A510D8022D2000F
:103810000A400E490A43D2431A4011003B191B8843
:103820009B059A0D3B181B781804FF231B040340CB
:103830001A437B681A433B6A1A43FB681B680A43B6
:103840005A60C046BD4605B090BDC046FF63FF0349
:1038500080B582B000AF786039607B6841229B5CA4
:10386000DBB2202B38D17B6840229B5C012B01D13D
:10387000022332E07B684022012199547B68412277
:10388000242199547B681B681A687B681B68012196
:103890008A431A607B681B681A687B681B68114939
:1038A0000A401A607B681B6819687B681B683A6865
:1038B0000A431A607B681B681A687B681B680121D1
:1038C0000A431A607B684122202199547B68402278
:1038D00000219954002300E002231800BD4602B0E5
:1038E00080BDC046FFEFFFFF80B584B000AF7860B9
:1038F00039607B6841229B5CDBB2202B39D17B682D
:1039000040229B5C012B01D1022333E07B684022E3
:10391000012199547B684122242199547B681B68BA
:103920001A687B681B6801218A431A607B681B68E0
:103930001B68FB60FB68114A1340FB603B681B027D
:10394000FA681343FB607B681B68FA681A607B683F
:103950001B681A687B681B6801210A431A607B6830
:103960004122202199547B68402200219954002350
:1039700000E002231800BD4604B080BDFFF0FFFF49
:1039800080B584B000AF78607B68002B01D1012343
:1039900036E07B681B681C4A1A607B681B681B4A00
:1039A0001A607B681B687A6852685A607B681B687B
:1039B0007A6892689A60FEF777F90300FB6008E086
:1039C000FEF772F90200FB68D31A262B01D90323F4
:1039D00016E07B681B68DB68002BF1D17B681B68F5
:1039E0001A697B68DB689A4205D07B681B687A6835
:1039F000D2681A6103E07B681B68054A1A600023DD
:103A00001800BD4604B080BDCCCC00005555000068
:103A1000AAAA000080B582B000AF78607B681B68FE
:103A2000034A1A6000231800BD4602B080BDC0469C
:103A3000AAAA000080B588B000AF78607B68002B30
:103A400001D1012301E37B681B680122134000D1EF
:103A50008DE0C34B5B680C221340042B0ED0C04B8F
:103A60005B680C221340082B16D1BD4B5A6880238B
:103A70005B021A4080235B029A420DD1B84B1A6850
:103A800080239B02134000D170E07B685B68002BB1
:103A900000D06BE00123D8E27B685B68012B07D183
:103AA000AF4B1A68AE4B802149020A431A602FE0DF
:103AB0007B685B68002B0CD1A94B1A68A84BA949FD
:103AC0000A401A60A64B1A68A54BA7490A401A601B
:103AD0001EE07B685B68052B0ED1A14B1A68A04BDA
:103AE0008021C9020A431A609D4B1A689C4B8021B1
:103AF00049020A431A600BE0994B1A68984B99499E
:103B00000A401A60964B1A68954B97490A401A600A
:103B10007B685B68002B14D0FEF7C6F80300BB611E
:103B200008E0FEF7C1F80200BB69D31A642B01D983
:103B300003238AE28A4B1A6880239B021340F0D049
:103B400015E0FEF7B1F80300BB6108E0FEF7ACF842
:103B50000200BB69D31A642B01D9032375E2804BA1
:103B60001A6880239B021340F0D100E0C0467B68B6
:103B70001B680222134000D169E0794B5B680C227C
:103B800013400BD0764B5B680C221340082B1CD1E2
:103B9000734B5A6880235B02134016D1704B1B682D
:103BA0000222134005D07B68DB68012B01D0012382
:103BB0004BE26B4B1B68F822934319007B681B692F
:103BC000DA00674B0A431A6041E07B68DB68002B30
:103BD00024D0634B1A68624B01210A431A60FEF736
:103BE00063F80300BB6108E0FEF75EF80200BB6902
:103BF000D31A022B01D9032327E2594B1B68022257
:103C00001340F1D0564B1B68F822934319007B6890
:103C10001B69DA00524B0A431A6018E0504B1A68CD
:103C20004F4B01218A431A60FEF73EF80300BB6147
:103C300008E0FEF739F80200BB69D31A022B01D95C
:103C4000032302E2464B1B6802221340F1D17B683A
:103C50001B680822134036D07B68DB69002B19D023
:103C60003F4B5A6A3E4B01210A435A62FEF71CF849
:103C70000300BB6108E0FEF717F80200BB69D31A26
:103C8000022B01D90323E0E1354B5B6A022213408A
:103C9000F1D018E0324B5A6A314B01218A435A6203
:103CA000FEF702F80300BB6108E0FDF7FDFF02002C
:103CB000BB69D31A022B01D90323C6E1284B5B6AE7
:103CC00002221340F1D17B681B680422134000D10B
:103CD000B4E01F203B1800221A70214BDA698023C0
:103CE0005B05134010D11E4BDA691D4B802149053D
:103CF0000A43DA611A4BDA6980235B051340FB60E3
:103D0000FB683B1801221A70184B1A6880235B006D
:103D100013401AD1154B1A68144B802149000A43ED
:103D20001A60FDF7C1FF0300BB6108E0FDF7BCFFAF
:103D30000200BB69D31A642B01D9032385E10B4B25
:103D40001A6880235B001340F0D07B689B68012BCE
:103D50000ED1034B1A6A024B01210A431A6235E065
:103D600000100240FFFFFEFFFFFFFBFF007000405E
:103D70007B689B68002B0CD1B64B1A6AB54B0121AE
:103D80008A431A62B34B1A6AB24B04218A431A62FD
:103D90001CE07B689B68052B0CD1AE4B1A6AAD4BBF
:103DA00004210A431A62AB4B1A6AAA4B01210A4347
:103DB0001A620BE0A74B1A6AA64B01218A431A62CA
:103DC000A44B1A6AA34B04218A431A627B689B683E
:103DD000002B14D0FDF768FF0300BB6109E0FDF77D
:103DE00063FF0200BB69D31A9B4A934201D90323A4
:103DF0002BE1984B1B6A02221340F0D013E0FDF731
:103E000053FF0300BB6109E0FDF74EFF0200BB69F1
:103E1000D31A914A934201D9032316E18D4B1B6AB1
:103E200002221340F0D11F23FB181B78012B05D170
:103E3000884BDA69874B89490A40DA617B681B68DD
:103E40001022134063D07B685B69012B2AD1814B20
:103E50005A6B804B04210A435A637E4B5A6B7D4B4D
:103E600001210A435A63FDF71FFF0300BB6108E00D
:103E7000FDF71AFF0200BB69D31A022B01D90323F5
:103E8000E3E0744B5B6B02221340F1D0714B5B6B30
:103E9000F822934319007B689B69DA006D4B0A4353
:103EA0005A6334E07B685B69053311D1694B5A6B07
:103EB000684B04218A435A63664B5B6BF822934339
:103EC00019007B689B69DA00624B0A435A631EE063
:103ED000604B5A6B5F4B04210A435A635D4B5A6B2C
:103EE0005C4B01218A435A63FDF7DEFE0300BB6190
:103EF00008E0FDF7D9FE0200BB69D31A022B01D9F5
:103F00000323A2E0534B5B6B02221340F1D17B6889
:103F10001B6A002B00D197E04E4B5B680C221340CC
:103F2000082B00D16BE07B681B6A022B4CD1494BFC
:103F30001A68484B4A490A401A60FDF7B5FE03006B
:103F4000BB6108E0FDF7B0FE0200BB69D31A022B8B
:103F500001D9032379E03F4B1A6880239B04134067
:103F6000F0D13C4BDB6A0F22934319007B68DA6A7D
:103F7000384B0A43DA62374B5B683A4A1340190000
:103F80007B689A6A7B685B6A1A43324B0A435A60C1
:103F9000304B1A682F4B802149040A431A60FDF701
:103FA00083FE0300BB6108E0FDF77EFE0200BB69F3
:103FB000D31A022B01D9032347E0264B1A6880232A
:103FC0009B041340F0D03FE0224B1A68214B244958
:103FD0000A401A60FDF768FE0300BB6108E0FDF7C8
:103FE00063FE0200BB69D31A022B01D903232CE024
:103FF000184B1A6880239B041340F0D124E07B689F
:104000001B6A012B01D101231FE0124B5B687B610E
:10401000104BDB6A3B617A6980235B021A407B6844
:104020005B6A9A420ED13B690F221A407B68DB6AB9
:104030009A4207D17A69F0239B031A407B689B6AF6
:104040009A4201D0012300E000231800BD4608B0C9
:1040500080BDC0460010024088130000FFFFFFEF44
:10406000FFFFFFFEFFFFC2FF80B584B000AF7860A6
:1040700039607B68002B01D10123B3E05B4B1B68E7
:10408000012213403A689A4211D9584B1B68012209
:1040900093431900554B3A680A431A60534B1B6807
:1040A000012213403A689A4201D001239AE07B68CA
:1040B0001B680222134015D07B681B680422134042
:1040C00006D04B4B5A684A4BE021C9000A435A605C
:1040D000474B5B68F022934319007B689A68444B16
:1040E0000A435A607B681B680122134040D07B68FA
:1040F0005B68012B07D13E4B1A6880239B0213405B
:1041000014D101236EE07B685B68022B07D1384B2A
:104110001A6880239B04134008D1012362E0344BCA
:104120001B680222134001D101235BE0304B5B6826
:104130000322934319007B685A682D4B0A435A6047
:10414000FDF7B2FD0300FB6009E0FDF7ADFD0200E5
:10415000FB68D31A274A934201D9032342E0244B38
:104160005B680C221A407B685B689B009A42ECD12A
:104170001E4B1B68012213403A689A4211D21B4B16
:104180001B68012293431900184B3A680A431A60CE
:10419000164B1B68012213403A689A4201D0012352
:1041A00020E07B681B680422134009D0104B5B6839
:1041B000114A134019007B68DA680D4B0A435A60B4
:1041C00000F020F801000A4B5B681B090F22134026
:1041D0000A4AD35C0A00DA40094B1A600020FDF756
:1041E0001DFD00231800BD4604B080BD0020024024
:1041F0000010024088130000FFF8FFFFEC5B00088E
:104200000400002090B58FB000AF1423FB182B4A98
:1042100013CA13C312681A603B1D294A13CA13C379
:1042200012681A600023FB620023BB6200237B63D9
:1042300000237B6200233B63224B5B68FB62FB6ACB
:104240000C221340042B02D0082B03D02DE01E4B70
:104250003B632DE0FB6A9B0C0F2213401422BA181B
:10426000D35C7B62174BDB6A0F2213403A1DD35C91
:10427000BB62FA6A80235B02134009D0B96A124814
:10428000FBF754FF03001A007B6A53437B6309E08A
:10429000796A0A005201521A93019B1ADB005B18DB
:1042A0001B027B637B6B3B6302E0074B3B63C046B7
:1042B0003B6B1800BD460FB090BDC046985B000830
:1042C000A85B00080010024000127A0080B586B09A
:1042D00000AF786000233B610023FB607B681A68B5
:1042E00080235B02134000D18EE017203B18002290
:1042F0001A70574BDA6980235B05134010D1544B79
:10430000DA69534B802149050A43DA61504BDA6977
:1043100080235B051340BB60BB683B1801221A7009
:104320004C4B1A6880235B0013401AD1494B1A6822
:10433000484B802149000A431A60FDF7B5FC030091
:104340003B6108E0FDF7B0FC02003B69D31A642B27
:1043500001D9032377E03F4B1A6880235B001340A9
:10436000F0D03B4B1A6AC0239B001340FB60FB68F4
:10437000002B34D07B685A68C0239B001340FA6836
:104380009A422CD0324B1B6A334A1340FB60304BAD
:104390001A6A2F4B802149020A431A622C4B1A6A6F
:1043A0002B4B2E490A401A62294BFA681A62FB68A5
:1043B0000122134013D0FDF777FC03003B6109E0B5
:1043C000FDF772FC02003B69D31A254A934201D9DA
:1043D000032338E01E4B1B6A02221340F0D01C4B13
:1043E0001B6A1D4A134019007B685A68184B0A4320
:1043F0001A621723FB181B78012B05D1144BDA69BD
:10440000134B18490A40DA617B681B68012213408C
:1044100009D00F4B1B6B0322934319007B689A68EA
:104420000B4B0A431A637B681B682022134009D098
:10443000074B1B6B1022934319007B68DA68044B0F
:104440000A431A6300231800BD4606B080BDC0466B
:104450000010024000700040FFFCFFFFFFFFFEFF66
:1044600088130000FFFFFFEF80B582B000AF7860D7
:104470007B68002B01D1012342E07B683D229B5CDD
:10448000DBB2002B07D17B683C22002199547B686A
:104490001800FDF7C5FA7B683D22022199547B681C
:1044A0001A687B6804331900100000F0BDFA7B68BD
:1044B0004622012199547B683E22012199547B6850
:1044C0003F22012199547B684022012199547B6845
:1044D0004122012199547B684222012199547B6831
:1044E0004322012199547B684422012199547B681D
:1044F0004522012199547B683D22012199540023D2
:104500001800BD4602B080BD80B582B000AF7860B3
:104510007B68002B01D1012342E07B683D229B5C3C
:10452000DBB2002B07D17B683C22002199547B68C9
:10453000180000F039F87B683D22022199547B680D
:104540001A687B6804331900100000F06DFA7B686C
:104550004622012199547B683E22012199547B68AF
:104560003F22012199547B684022012199547B68A4
:104570004122012199547B684222012199547B6890
:104580004322012199547B684422012199547B687C
:104590004522012199547B683D2201219954002331
:1045A0001800BD4602B080BD80B582B000AF786013
:1045B000C046BD4602B080BD80B584B000AF786013
:1045C00039603B68002B08D17B683E229B5CDBB2E4
:1045D000013B5A1E9341DBB21FE03B68042B08D11C
:1045E0007B683F229B5CDBB2013B5A1E9341DBB2EE
:1045F00013E03B68082B08D17B6840229B5CDBB250
:10460000013B5A1E9341DBB207E07B6841229B5C71
:10461000DBB2013B5A1E9341DBB2002B01D00123D8
:104620006EE03B68002B04D17B683E220221995446
:1046300013E03B68042B04D17B683F22022199548C
:104640000BE03B68082B04D17B684022022199547F
:1046500003E07B684122022199547B681B6839681A
:104660000122180000F0ECFC7B681B68264A93428C
:104670000ED07B681B68254A934209D07B681B6873
:10468000234A934204D07B681B68224A934201D19B
:10469000012300E00023002B08D07B681B685A6CC4
:1046A0007B681B68802109020A435A647B681B6887
:1046B000154A934209D07B681B68174A934204D07D
:1046C0007B681B68114A934211D17B681B689B6809
:1046D00007221340FB60FB68062B10D07B681B6829
:1046E0001A687B681B6801210A431A6007E07B682F
:1046F0001B681A687B681B6801210A431A60002343
:104700001800BD4604B080BD002C014000400140AF
:1047100000440140004801400004004080B584B0DE
:1047200000AFF860B9607A60FB683C229B5C012BAB
:1047300001D10223A7E0FB683C22012199547B6848
:104740000C2B00D176E07B680C2B00D995E07B68C0
:10475000082B4ED07B68082B00D98EE07B68002B9D
:1047600003D07B68042B21D087E0FB681B68BA6804
:104770001100180000F0CEF9FB681B689A69FB680D
:104780001B6808210A439A61FB681B689A69FB68E9
:104790001B6804218A439A61FB681B689969BB689E
:1047A0001A69FB681B680A439A6167E0FB681B682B
:1047B000BA681100180000F035FAFB681B689A69A6
:1047C000FB681B68802109010A439A61FB681B682A
:1047D0009A69FB681B682E490A409A61FB681B684E
:1047E0009969BB681B691A02FB681B680A439A61D6
:1047F00044E0FB681B68BA681100180000F096FAE4
:10480000FB681B68DA69FB681B6808210A43DA61E8
:10481000FB681B68DA69FB681B6804218A43DA615C
:10482000FB681B68D969BB681A69FB681B680A4387
:10483000DA6123E0FB681B68BA681100180000F019
:10484000FBFAFB681B68DA69FB681B6880210901B9
:104850000A43DA61FB681B68DA69FB681B680C496C
:104860000A40DA61FB681B68D969BB681B691A02D8
:10487000FB681B680A43DA6100E0C046FB683C2223
:104880000021995400231800BD4604B080BDC046E5
:10489000FFFBFFFF80B584B000AF786039607B68B4
:1048A0003C229B5C012B01D10223B7E07B683C22B8
:1048B000012199547B683D22022199547B681B6831
:1048C0009B68FB60FB6877229343FB60FB68554A5B
:1048D0001340FB607B681B68FA689A603B681B6842
:1048E00080229201934240D080229201934200D9CB
:1048F00088E080225201934200D185E0802252015B
:10490000934200D97EE0702B18D000D97AE0602B5A
:104910004FD000D976E0502B3BD000D972E0402B2D
:1049200057D000D96EE0302B63D06BD8202B60D0ED
:1049300068D8002B5DD0102B5BD063E07B681868D3
:104940003B6899683B685A683B68DB6800F058FB35
:104950007B681B689B68FB60FB6877221343FB60E6
:104960007B681B68FA689A604FE07B6818683B6850
:1049700099683B685A683B68DB6800F041FB7B68DC
:104980001B689A687B681B688021C9010A439A608A
:104990003BE07B6818683B6859683B68DB681A0035
:1049A00000F0B4FA7B681B685021180000F00EFB81
:1049B0002BE07B6818683B6859683B68DB681A0025
:1049C00000F0D2FA7B681B686021180000F0FEFA44
:1049D0001BE07B6818683B6859683B68DB681A0015
:1049E00000F094FA7B681B684021180000F0EEFA92
:1049F0000BE07B681A683B681B681900100000F028
:104A0000E5FA02E0C04600E0C0467B683D22012195
:104A100099547B683C220021995400231800BD461C
:104A200004B080BDFF00FFFF80B584B000AF7860A8
:104A300039607B681B68FB607B682F4A934203D018
:104A40007B682E4A934208D1FB6870229343FB6037
:104A50003B685B68FA681343FB607B68264A9342B5
:104A600013D07B68254A93420FD07B68244A934237
:104A70000BD07B68234A934207D07B68224A93423B
:104A800003D07B68214A934208D1FB68204A134037
:104A9000FB603B68DB68FA681343FB60FB688022BD
:104AA00093431A003B685B691343FB607B68FA68B9
:104AB0001A603B689A687B68DA623B681A687B68B0
:104AC0009A627B680C4A93420BD07B680D4A9342F2
:104AD00007D07B680C4A934203D07B680B4A934211
:104AE00003D13B681A697B681A637B6801225A61AB
:104AF000C046BD4604B080BD002C0140000400400B
:104B000000200040004001400044014000480140B6
:104B1000FFFCFFFF80B586B000AF786039607B682E
:104B20001B6A012293431A007B681A627B681B6A26
:104B30007B617B685B683B617B689B69FB60FB68B2
:104B400070229343FB60FB6803229343FB603B6846
:104B50001B68FA681343FB607B69022293437B6105
:104B60003B689B687A6913437B617B68274A934261
:104B70000BD07B68264A934207D07B68254A934234
:104B800003D07B68244A93420CD17B69082293436B
:104B90007B613B68DB687A6913437B617B69042234
:104BA00093437B617B68194A93420BD07B68184A18
:104BB000934207D07B68174A934203D07B68164A1A
:104BC000934211D13B69154A13403B613B69144A3A
:104BD00013403B613B685B693A6913433B613B6847
:104BE0009B693A6913433B617B683A695A607B6809
:104BF000FA689A613B685A687B685A637B687A698D
:104C00001A62C046BD4606B080BDC046002C0140B9
:104C1000004001400044014000480140FFFEFFFF0A
:104C2000FFFDFFFF80B586B000AF786039607B681C
:104C30001B6A102293431A007B681A627B681B6A06
:104C40007B617B685B683B617B689B69FB60FB68A1
:104C50002E4A1340FB60FB682D4A1340FB603B6803
:104C60001B681B02FA681343FB607B692022934395
:104C70007B613B689B681B017A6913437B617B689E
:104C8000244A93420DD17B69802293437B613B6828
:104C9000DB681B017A6913437B617B694022934384
:104CA0007B617B681B4A93420BD07B681A4A934214
:104CB00007D07B68194A934203D07B68184A934215
:104CC00013D13B69174A13403B613B69164A1340B5
:104CD0003B613B685B699B003A6913433B613B68FE
:104CE0009B699B003A6913433B617B683A695A6050
:104CF0007B68FA689A613B685A687B689A637B684C
:104D00007A691A62C046BD4606B080BDFF8FFFFFBC
:104D1000FFFCFFFF002C0140004001400044014027
:104D200000480140FFFBFFFFFFF7FFFF80B586B0A3
:104D300000AF786039607B681B6A354A1A407B682F
:104D40001A627B681B6A7B617B685B683B617B687E
:104D5000DB69FB60FB6870229343FB60FB68032206
:104D60009343FB603B681B68FA681343FB607B69F5
:104D7000284A13407B613B689B681B027A69134396
:104D80007B617B68244A93420DD17B69234A13409F
:104D90007B613B68DB681B027A6913437B617B693B
:104DA0001F4A13407B617B681B4A93420BD07B6890
:104DB0001C4A934207D07B681B4A934203D07B680E
:104DC0001A4A934213D13B69194A13403B613B692C
:104DD000184A13403B613B685B691B013A69134306
:104DE0003B613B689B691B013A6913433B617B68EC
:104DF0003A695A607B68FA68DA613B685A687B688E
:104E0000DA637B687A691A62C046BD4606B080BD27
:104E1000FFFEFFFFFFFDFFFF002C0140FFF7FFFF3C
:104E2000FFFBFFFF004001400044014000480140FB
:104E3000FFEFFFFFFFDFFFFF80B586B000AF7860B8
:104E400039607B681B6A284A1A407B681A627B6853
:104E50001B6A3B617B685B687B617B68DB69FB602D
:104E6000FB68224A1340FB60FB68214A1340FB6049
:104E70003B681B681B02FA681343FB603B691D4AD1
:104E800013403B613B689B681B033A6913433B61DA
:104E90007B68194A93420BD07B68184A934207D02B
:104EA0007B68174A934203D07B68164A934209D124
:104EB0007B69154A13407B613B685B699B017A699A
:104EC00013437B617B687A695A607B68FA68DA61B0
:104ED0003B685A687B681A647B683A691A62C04604
:104EE000BD4606B080BDC046FFEFFFFFFF8FFFFF4E
:104EF000FFFCFFFFFFDFFFFF002C014000400140EF
:104F00000044014000480140FFBFFFFF80B586B06C
:104F100000AFF860B9607A60FB681B6A7B61FB6870
:104F20001B6A012293431A00FB681A62FB689B69A3
:104F30003B613B69F02293433B617B681B013A690B
:104F400013433B617B690A2293437B617A69BB68A7
:104F500013437B61FB683A699A61FB687A691A625C
:104F6000C046BD4606B080BD80B586B000AFF860D3
:104F7000B9607A60FB681B6A102293431A00FB68D1
:104F80001A62FB689B697B61FB681B6A3B617B69FA
:104F90000D4A13407B617B681B037A6913437B6175
:104FA0003B69A02293433B61BB681B013A691343F1
:104FB0003B61FB687A699A61FB683A691A62C0468C
:104FC000BD4606B080BDC046FF0FFFFF80B584B070
:104FD00000AF786039607B689B68FB60FB6870227B
:104FE0009343FB603A68FB68134307221343FB605B
:104FF0007B68FA689A60C046BD4604B080BD000078
:1050000080B586B000AFF860B9607A603B60FB683D
:105010009B687B617B69094A13407B613B681A028C
:105020007B681A43BB6813437A6913437B61FB684F
:105030007A699A60C046BD4606B080BDFF00FFFF9A
:1050400080B586B000AFF860B9607A60BB681F2297
:10505000134001229A4013007B61FB681B6A7A6946
:10506000D2431A40FB681A62FB681A6ABB681F21A8
:105070000B40796899400B001A43FB681A62C046DE
:10508000BD4606B080BD000080B584B000AF78603A
:1050900039607B683C229B5C012B01D1022341E0FB
:1050A0007B683C22012199547B683D22022199545E
:1050B0007B681B685B68FB607B681B689B68BB60E8
:1050C000FB6870229343FB603B681B68FA681343DC
:1050D000FB607B681B68FA685A607B681B68134A30
:1050E000934209D07B681B68114A934204D07B68C5
:1050F0001B68104A93420CD1BB6880229343BB606B
:105100003B685B68BA681343BB607B681B68BA681E
:105110009A607B683D22012199547B683C220021E2
:10512000995400231800BD4604B080BD002C0140F6
:10513000000400400040014080B584B000AF7860BA
:1051400039600023FB607B683C229B5C012B01D112
:1051500002233EE07B683C2201219954FB68FF2238
:1051600093431A003B68DB681343FB60FB681B4AF0
:105170001A403B689B681343FB60FB68184A1A405F
:105180003B685B681343FB60FB68164A1A403B6848
:105190001B681343FB60FB68134A1A403B681B699A
:1051A0001343FB60FB68114A1A403B685B69134379
:1051B000FB60FB680E4A1A403B68DB691343FB60E7
:1051C0007B681B68FA685A647B683C22002199540A
:1051D00000231800BD4604B080BDC046FFFCFFFFA1
:1051E000FFFBFFFFFFF7FFFFFFEFFFFFFFDFFFFF0B
:1051F000FFBFFFFF014B18687047C046100000203A
:1052000070B500260C4D0D4C641BA410A64209D1AC
:10521000002600F099FC0A4D0A4C641BA410A6421B
:1052200005D170BDB300EB5898470136EEE7B300E7
:10523000EB5898470136F2E7305C0008305C000814
:10524000305C0008345C000830B500240139A2420B
:1052500001D1002005E0035D01340D5DAB42F6D0C5
:10526000581B30BD002310B59A4200D110BDCC5C54
:10527000C4540133F8E703008218934200D1704709
:1052800019700133F9E7000070B50500002910D04E
:105290000C1F2368002B00DAE418280000F008F93E
:1052A0001D4A1368002B05D163601460280000F0CC
:1052B00007F970BDA34208D9216860188342F3D171
:1052C00018685B6841182160EEE71A005B68002BE4
:1052D00001D0A342F9D911685018A0420BD120681F
:1052E0000918501811608342E0D118685B684118B2
:1052F00011605360DAE7A04202D90C232B60D5E796
:1053000021686018834203D118685B6841182160E6
:1053100063605460CAE7C046D802002070B50F4EE3
:105320000D0031680400002902D100F08FF83060D0
:105330002900200000F08AF8431C0AD00323C51C72
:105340009D43A84207D0291A200000F07FF8431C93
:1053500001D101256D42280070BDC046DC0200204D
:10536000F7B50322CB1C9343083306001F000C2B18
:1053700032D20C27B94231D8300000F099F8324DC2
:105380002B681C00002C2ED139003000FFF7C6FF1F
:105390000400431C1ED12C682500002D4AD123682F
:1053A0002900E3183000019300F050F8019B83427C
:1053B00043D123680337FF1A03239F4308370C2F79
:1053C00000D20C2739003000FFF7A8FF431C34D06F
:1053D0002368DF19276013E0002BCBDA0C230025AC
:1053E00033602800FEBD2268D11B20D40B2917D9B9
:1053F000E2192760A34211D12A60636811605360EB
:105400003000250000F05CF807220B35231D954382
:10541000EA1A9D42E5D05B1BA350E2E75A60ECE735
:105420006268A34201D12A60EAE75A60E8E72300F4
:105430006468A7E72C006D68AFE70C233000336089
:1054400000F03EF8CDE7C046D8020020002370B53A
:10545000064D040008002B60FCF766FB431C03D1DB
:105460002B68002B00D0236070BDC046E0020020F6
:105470000EB400B50B499CB01DAB0290069007918D
:1054800004910948094904CB0591006802A90193D8
:1054900000F080F80023029A13701CB008BC03B01F
:1054A0001847C046FFFFFF7F100000200802FFFFE3
:1054B00010B5024800F0F0FA10BDC046E40200202A
:1054C00010B5024800F0E9FA10BDC046E402002021
:1054D000F0B58E6885B007000C00039201939E42E0
:1054E0003CD890238A89DB001A4234D009692368AA
:1054F00060695B1A029303234343DD0FED18019BA0
:10550000029801331B186D10AB4200D91D005305E2
:1055100032D529003800FFF723FF061E09D10C23DE
:105520003B6040230120A28940421343A38105B080
:10553000F0BD029A2169FFF795FEA389144A1A402B
:1055400080231343A381029B2661F61826606561C0
:10555000019EED1AA560019B9E4200D9019E32007A
:105560000399206800F0A5FAA36800209B1BA360A4
:1055700023689E192660DAE72A00380000F0ACFAAA
:10558000061EE0D138002169FFF77EFEC7E7C0465E
:105590007FFBFFFFF0B5A1B003901D008B890F00CA
:1055A00016001B0611D50B69002B0ED14021FFF709
:1055B000D7FE38603861002805D10C23039A0138E2
:1055C000136021B0F0BD40237B61002308AC636110
:1055D000203363761033A376079535002B78002BA4
:1055E00001D0252B47D1AB1B0593B5420CD032001F
:1055F00039000398FFF76CFF431C00D1AEE06269ED
:10560000059B9446634463612B78002B00D1A5E091
:10561000012200235242626004A9543252186E1CC7
:105620002360E360A3601370A365052231785448BA
:1056300000F034FA751C00281FD12268D30604D567
:10564000532304A95B1820211970130704D5532391
:1056500004A95B182B21197033782A2B16D035003A
:1056600000210A20E3682A786E1C303A092A4ED9B4
:10567000002911D117E00135B0E7414B2268C01A6B
:105680000123834013432E002360CEE7079B191D9F
:105690001B680791002B01DB0B9304E05B42E36086
:1056A0000223134323602B782E2B0AD16B782A2BED
:1056B00035D1079B02351A1D1B680792002B2BDB87
:1056C0000993304E03223000297800F0E7F90028D2
:1056D00006D04023801B834022680135134323609A
:1056E0002978062228486E1C217600F0D7F9002878
:1056F0003CD0264B002B25D10722079B0733934331
:10570000083307936369049A9B18636165E7434311
:10571000350001219B18A6E701235B42D0E7002357
:105720000A201A000135636029786E1C3039092976
:1057300003D9002BC5D00992C3E7424335000123AA
:105740005218F1E707AB00933A002100104B039881
:1057500000E000BF0490049B0133D3D1BB890D98B6
:105760005B0600D42DE7012040422AE707AB0093F7
:105770003A002100064B039800F07CF8EAE7C046A7
:10578000FC5B0008025C0008065C000800000000EA
:10579000D1540008F7B5150001938A680B690C0015
:1057A0000090934200DA130022002B6043321278FB
:1057B000002A01D001332B6023689B0602D52B6899
:1057C00002332B602268062317001F401A4227D09D
:1057D000230043331B785A1E93412268920630D42B
:1057E000220001990098089E4332B047431C25D0FF
:1057F000062320682A68E16800250340042B03D1B2
:105800008D1AEB43DB171D40A3682269934201DD2B
:105810009B1AED180027BD4220D1002010E001376F
:10582000E3682A689B1ABB42D2DD2200012301995A
:105830000098089E1932B047431CF0D10120404225
:10584000FEBD3020E1184331087021005A1C45315B
:105850000978A218433202331170C1E722000123F4
:1058600001990098089E1A32B047431CE6D00137D0
:10587000D1E70000F0B58BB006920A0043320793DF
:10588000059004920A7E0C00109B782A07D8622AA1
:1058900009D8002A00D1C1E0582A00D18CE02600A6
:1058A0004236327022E0100063381528F7D8FAF734
:1058B00033FC16001F00F6FFF6FFF6FFF6FF1F0091
:1058C000F6FFF6FFF6FFF6FFA80036009A00F6FF97
:1058D000F6FFB900F6FF3600F6FFF6FF9E00260041
:1058E0001A684236111D1960136833700123A7E04E
:1058F000086819680A1D05060BD50D681A60002D89
:1059000003DA2D23049A6D421370614B0A27039327
:105910001BE00D681A604106F1D52DB2EFE70D6866
:105920001968081D18602E0601D50D6803E06D0684
:10593000FBD50D68ADB2564B082703936F2A00D0F4
:1059400002372300002243331A706368A360002BE0
:1059500003DB0422216891432160002D02D1049EC3
:10596000002B0CD0049E28003900FAF765FC039B3D
:10597000013E5B5C33702B0005009F42F3D9082F7A
:1059800009D12368DB0706D563682269934202DCEC
:105990003023013E3370049B9B1B2361079B210036
:1059A00000930598069B09AAFFF7F4FE431C4CD10F
:1059B000012040420BB0F0BD45310A70344A0392D9
:1059C0001A68216820CA1A60080616D5CB0702D5C6
:1059D0002023194321601027002DB2D120232268F3
:1059E0009A432260ADE7202209680A432260220020
:1059F000782145321170274AE1E74806E6D5ADB275
:105A0000E4E71A680D68101D4969186013682E06CE
:105A100001D5196002E06D06FBD519800023049EB4
:105A20002361BBE71A68111D196016680021300058
:105A3000626800F033F8002801D0801B6060636862
:105A400023610023049A1370A8E7236932000699A2
:105A50000598079DA847431CAAD023689B0715D427
:105A6000099BE0689842A5DA1800A3E72200012309
:105A700006990598079E1932B047431C98D0013506
:105A8000E368099A9B1AAB42F0DCE9E70025F7E7E7
:105A90000D5C00081E5C000870477047C9B2821890
:105AA000904201D10020704703788B42FBD0013037
:105AB000F6E710B5884202D98B18984203D3002329
:105AC00007E08B5C8354013AFBD210BDCC5CC4541C
:105AD00001339A42FAD1F8E7F7B507000E00140037
